{
    "contractName": "test",
    "abi": [
        {
            "constant": true,
            "inputs": [],
            "name": "a",
            "outputs": [
                {
                    "internalType": "uint256",
                    "name": "",
                    "type": "uint256"
                }
            ],
            "payable": false,
            "stateMutability": "view",
            "type": "function"
        },
        {
            "constant": false,
            "inputs": [
                {
                    "internalType": "uint256",
                    "name": "b",
                    "type": "uint256"
                }
            ],
            "name": "seta",
            "outputs": [
                {
                    "internalType": "uint256",
                    "name": "",
                    "type": "uint256"
                }
            ],
            "payable": false,
            "stateMutability": "nonpayable",
            "type": "function"
        }
    ],
    "bytecode": "6080604052348015600f57600080fd5b5060ac8061001e6000396000f3fe6080604052348015600f57600080fd5b506004361060325760003560e01c80630dbe671f14603757806349f3870b14604f575b600080fd5b603d6069565b60408051918252519081900360200190f35b603d60048036036020811015606357600080fd5b5035606f565b60005481565b60008190559056fea265627a7a72315820acafb717eabb3e2d4a834699a2171f2291cf34589eef65f5dc509bc6db57c39a64736f6c634300050b0032",
    "sourcePath": "/home/lixuan/Dapp_Workspace/SendTransaction/test.sol",
    "compiler": {
        "name": "solc",
        "version": "0.5.11+commit.c082d0b4"
    },
    "functionHashes": {
        "a()": "0dbe671f",
        "seta(uint256)": "49f3870b"
    },
    "gasEstimates": {
        "creation": {
            "codeDepositCost": "34400",
            "executionCost": "87",
            "totalCost": "34487"
        },
        "external": {
            "a()": "376",
            "seta(uint256)": "20246"
        }
    }
}