{
  "contractName": "Voting",
  "abi": [
    {
      "constant": true,
      "inputs": [
        {
          "name": "",
          "type": "uint256"
        }
      ],
      "name": "CandidateList",
      "outputs": [
        {
          "name": "",
          "type": "bytes32"
        }
      ],
      "payable": false,
      "stateMutability": "view",
      "type": "function"
    },
    {
      "constant": true,
      "inputs": [
        {
          "name": "",
          "type": "bytes32"
        }
      ],
      "name": "VotesReceived",
      "outputs": [
        {
          "name": "",
          "type": "uint256"
        }
      ],
      "payable": false,
      "stateMutability": "view",
      "type": "function"
    },
    {
      "inputs": [
        {
          "name": "CandidateNames",
          "type": "bytes32[]"
        }
      ],
      "payable": false,
      "stateMutability": "nonpayable",
      "type": "constructor"
    },
    {
      "constant": false,
      "inputs": [
        {
          "name": "Candidate",
          "type": "bytes32"
        }
      ],
      "name": "voteForCandidate",
      "outputs": [],
      "payable": false,
      "stateMutability": "nonpayable",
      "type": "function"
    },
    {
      "constant": true,
      "inputs": [
        {
          "name": "Candidate",
          "type": "bytes32"
        }
      ],
      "name": "vaildCandidate",
      "outputs": [
        {
          "name": "",
          "type": "bool"
        }
      ],
      "payable": false,
      "stateMutability": "view",
      "type": "function"
    },
    {
      "constant": true,
      "inputs": [
        {
          "name": "Candidate",
          "type": "bytes32"
        }
      ],
      "name": "totalVotesFor",
      "outputs": [
        {
          "name": "",
          "type": "uint256"
        }
      ],
      "payable": false,
      "stateMutability": "view",
      "type": "function"
    }
  ],
  "bytecode": "0x608060405234801561001057600080fd5b506040516104ab3803806104ab8339810180604052602081101561003357600080fd5b81019080805164010000000081111561004b57600080fd5b8281019050602081018481111561006157600080fd5b815185602082028301116401000000008211171561007e57600080fd5b5050929190505050806001908051906020019061009c9291906100a3565b5050610115565b8280548282559060005260206000209081019282156100df579160200282015b828111156100de5782518255916020019190600101906100c3565b5b5090506100ec91906100f0565b5090565b61011291905b8082111561010e5760008160009055506001016100f6565b5090565b90565b610387806101246000396000f3fe608060405234801561001057600080fd5b50600436106100575760003560e01c80632f265cf71461005c57806372753be51461009e578063867b8284146100e0578063c5caa88114610122578063cc9ab26714610168575b600080fd5b6100886004803603602081101561007257600080fd5b8101908080359060200190929190505050610196565b6040518082815260200191505060405180910390f35b6100ca600480360360208110156100b457600080fd5b810190808035906020019092919050505061022d565b6040518082815260200191505060405180910390f35b61010c600480360360208110156100f657600080fd5b810190808035906020019092919050505061024e565b6040518082815260200191505060405180910390f35b61014e6004803603602081101561013857600080fd5b8101908080359060200190929190505050610266565b604051808215151515815260200191505060405180910390f35b6101946004803603602081101561017e57600080fd5b81019080803590602001909291905050506102bc565b005b60006101a182610266565b610213576040517f08c379a00000000000000000000000000000000000000000000000000000000081526004018080602001828103825260168152602001807f496e7661696c642043616e646964617465204e616d650000000000000000000081525060200191505060405180910390fd5b600080838152602001908152602001600020549050919050565b6001818154811061023a57fe5b906000526020600020016000915090505481565b60006020528060005260406000206000915090505481565b600080600090505b6001805490508110156102b157826001828154811061028957fe5b906000526020600020015414156102a45760019150506102b7565b808060010191505061026e565b50600090505b919050565b6102c581610266565b610337576040517f08c379a00000000000000000000000000000000000000000000000000000000081526004018080602001828103825260168152602001807f496e7661696c642043616e646964617465204e616d650000000000000000000081525060200191505060405180910390fd5b6001600080838152602001908152602001600020600082825401925050819055505056fea165627a7a72305820fa2c73e52ad6060f157181925d21ac1d0da31277c4d7b5fbf4087af321d72b6d0029",
  "source": "pragma solidity ^0.5.0;\n\n\ncontract Voting {\n  mapping(bytes32 => uint) public VotesReceived;\n  bytes32[] public CandidateList;\n\n  constructor(bytes32[] memory CandidateNames) public {\n    CandidateList = CandidateNames;\n  }\n\n  function voteForCandidate(bytes32 Candidate) public {\n    require(vaildCandidate(Candidate), \"Invaild Candidate Name\");\n    VotesReceived[Candidate] += 1;\n  }\n\n  function vaildCandidate(bytes32 Candidate) public view returns(bool) {\n    for (uint i = 0; i < CandidateList.length; i++) {\n      if (CandidateList[i] == Candidate) {\n        return true;\n      }\n    }\n    return false;\n  }\n  \n  function totalVotesFor(bytes32 Candidate) public view returns(uint) {\n    require(vaildCandidate(Candidate), \"Invaild Candidate Name\");\n    return VotesReceived[Candidate];\n  }\n}\n",
  "sourcePath": "/home/lixuan/code/Dapp_Workspace/Voting/contracts/Voting.sol",
  "compiler": {
    "name": "solc",
    "version": "0.5.8+commit.23d335f2.Emscripten.clang"
  },
  "schemaVersion": "3.0.16",
  "updatedAt": "2019-11-21T02:19:06.456Z",
  "devdoc": {
    "methods": {}
  },
  "userdoc": {
    "methods": {}
  }
}